{
  "_format": "hh-sol-artifact-1",
  "contractName": "Greeter",
  "sourceName": "contracts/Greeter.sol",
  "abi": [
    {
      "inputs": [],
      "stateMutability": "nonpayable",
      "type": "constructor"
    },
    {
      "inputs": [],
      "name": "deposit",
      "outputs": [],
      "stateMutability": "payable",
      "type": "function"
    },
    {
      "inputs": [],
      "name": "getBalance",
      "outputs": [
        {
          "internalType": "uint256",
          "name": "",
          "type": "uint256"
        }
      ],
      "stateMutability": "view",
      "type": "function"
    },
    {
      "inputs": [],
      "name": "owner",
      "outputs": [
        {
          "internalType": "address",
          "name": "",
          "type": "address"
        }
      ],
      "stateMutability": "view",
      "type": "function"
    }
  ],
  "bytecode": "0x608060405234801561001057600080fd5b50336000806101000a81548173ffffffffffffffffffffffffffffffffffffffff021916908373ffffffffffffffffffffffffffffffffffffffff160217905550610289806100606000396000f3fe6080604052600436106100345760003560e01c806312065fe0146100395780638da5cb5b14610064578063d0e30db01461008f575b600080fd5b34801561004557600080fd5b5061004e610099565b60405161005b9190610177565b60405180910390f35b34801561007057600080fd5b506100796100a1565b604051610086919061015c565b60405180910390f35b6100976100c5565b005b600047905090565b60008054906101000a900473ffffffffffffffffffffffffffffffffffffffff1681565b34600160008060009054906101000a900473ffffffffffffffffffffffffffffffffffffffff1673ffffffffffffffffffffffffffffffffffffffff1673ffffffffffffffffffffffffffffffffffffffff16815260200190815260200160002060008282546101359190610192565b92505081905550565b610147816101e8565b82525050565b6101568161021a565b82525050565b6000602082019050610171600083018461013e565b92915050565b600060208201905061018c600083018461014d565b92915050565b600061019d8261021a565b91506101a88361021a565b9250827fffffffffffffffffffffffffffffffffffffffffffffffffffffffffffffffff038211156101dd576101dc610224565b5b828201905092915050565b60006101f3826101fa565b9050919050565b600073ffffffffffffffffffffffffffffffffffffffff82169050919050565b6000819050919050565b7f4e487b7100000000000000000000000000000000000000000000000000000000600052601160045260246000fdfea2646970667358221220674cf88460442a7b2521123d399bfbc5520146b5a7d1c91162a9216810b8e17064736f6c63430008040033",
  "linkReferences": {},
  "deployedLinkReferences": {}
}